{
  "abi": [
    {
      "type": "constructor",
      "inputs": [
        {
          "name": "_factory",
          "type": "address",
          "internalType": "address"
        }
      ],
      "stateMutability": "nonpayable"
    },
    {
      "type": "function",
      "name": "createWallet",
      "inputs": [
        {
          "name": "domainHash",
          "type": "bytes32",
          "internalType": "bytes32"
        },
        {
          "name": "sender",
          "type": "address",
          "internalType": "address"
        }
      ],
      "outputs": [
        {
          "name": "",
          "type": "address",
          "internalType": "address"
        }
      ],
      "stateMutability": "nonpayable"
    },
    {
      "type": "function",
      "name": "factory",
      "inputs": [],
      "outputs": [
        {
          "name": "",
          "type": "address",
          "internalType": "contract BusinessWalletFactory"
        }
      ],
      "stateMutability": "view"
    },
    {
      "type": "function",
      "name": "getOrCreateWallet",
      "inputs": [
        {
          "name": "domainHash",
          "type": "bytes32",
          "internalType": "bytes32"
        },
        {
          "name": "sender",
          "type": "address",
          "internalType": "address"
        }
      ],
      "outputs": [
        {
          "name": "",
          "type": "address",
          "internalType": "address"
        }
      ],
      "stateMutability": "nonpayable"
    },
    {
      "type": "function",
      "name": "getWallet",
      "inputs": [
        {
          "name": "domainHash",
          "type": "bytes32",
          "internalType": "bytes32"
        },
        {
          "name": "sender",
          "type": "address",
          "internalType": "address"
        }
      ],
      "outputs": [
        {
          "name": "",
          "type": "address",
          "internalType": "address"
        }
      ],
      "stateMutability": "view"
    },
    {
      "type": "function",
      "name": "logWalletRequest",
      "inputs": [
        {
          "name": "domainHash",
          "type": "bytes32",
          "internalType": "bytes32"
        },
        {
          "name": "sender",
          "type": "address",
          "internalType": "address"
        }
      ],
      "outputs": [],
      "stateMutability": "nonpayable"
    },
    {
      "type": "function",
      "name": "registerBusiness",
      "inputs": [
        {
          "name": "domainHash",
          "type": "bytes32",
          "internalType": "bytes32"
        },
        {
          "name": "signature",
          "type": "bytes",
          "internalType": "bytes"
        }
      ],
      "outputs": [],
      "stateMutability": "nonpayable"
    },
    {
      "type": "function",
      "name": "withdrawFromWallet",
      "inputs": [
        {
          "name": "wallet",
          "type": "address",
          "internalType": "address"
        },
        {
          "name": "token",
          "type": "address",
          "internalType": "address"
        },
        {
          "name": "amount",
          "type": "uint256",
          "internalType": "uint256"
        }
      ],
      "outputs": [],
      "stateMutability": "nonpayable"
    },
    {
      "type": "event",
      "name": "BusinessRegistered",
      "inputs": [
        {
          "name": "domainHash",
          "type": "bytes32",
          "indexed": true,
          "internalType": "bytes32"
        }
      ],
      "anonymous": false
    },
    {
      "type": "event",
      "name": "WalletAssigned",
      "inputs": [
        {
          "name": "domainHash",
          "type": "bytes32",
          "indexed": true,
          "internalType": "bytes32"
        }
      ],
      "anonymous": false
    },
    {
      "type": "event",
      "name": "WalletRequested",
      "inputs": [
        {
          "name": "domainHash",
          "type": "bytes32",
          "indexed": true,
          "internalType": "bytes32"
        },
        {
          "name": "requestedSender",
          "type": "address",
          "indexed": true,
          "internalType": "address"
        },
        {
          "name": "actualSender",
          "type": "address",
          "indexed": true,
          "internalType": "address"
        }
      ],
      "anonymous": false
    }
  ],
  "bytecode": {
    "object": "0x60c060405234801561000f575f5ffd5b5060405161143d38038061143d83398181016040528101906100319190610100565b60015f819055508073ffffffffffffffffffffffffffffffffffffffff1660808173ffffffffffffffffffffffffffffffffffffffff1681525050423360405160200161007f929190610199565b6040516020818303038152906040528051906020012060a08181525050506101c4565b5f5ffd5b5f73ffffffffffffffffffffffffffffffffffffffff82169050919050565b5f6100cf826100a6565b9050919050565b6100df816100c5565b81146100e9575f5ffd5b50565b5f815190506100fa816100d6565b92915050565b5f60208284031215610115576101146100a2565b5b5f610122848285016100ec565b91505092915050565b5f819050919050565b5f819050919050565b61014e6101498261012b565b610134565b82525050565b5f8160601b9050919050565b5f61016a82610154565b9050919050565b5f61017b82610160565b9050919050565b61019361018e826100c5565b610171565b82525050565b5f6101a4828561013d565b6020820191506101b48284610182565b6014820191508190509392505050565b60805160a0516112546101e95f395f50505f818161031d01526106a901526112545ff3fe608060405234801561000f575f5ffd5b506004361061007b575f3560e01c8063c45a015511610059578063c45a0155146100e7578063d63d57f714610105578063eb9aaeb614610121578063fbc799db146101515761007b565b80630f6304181461007f57806330620d64146100af57806385ef4e74146100cb575b5f5ffd5b61009960048036038101906100949190610b49565b610181565b6040516100a69190610b96565b60405180910390f35b6100c960048036038101906100c49190610b49565b610521565b005b6100e560048036038101906100e09190610ceb565b610580565b005b6100ef6106a7565b6040516100fc9190610da0565b60405180910390f35b61011f600480360381019061011a9190610dec565b6106cb565b005b61013b60048036038101906101369190610b49565b610902565b6040516101489190610b96565b60405180910390f35b61016b60048036038101906101669190610b49565b6109f2565b6040516101789190610b96565b60405180910390f35b5f8260015f8581526020019081526020015f205f0154146101d7576040517f08c379a00000000000000000000000000000000000000000000000000000000081526004016101ce90610e96565b60405180910390fd5b5f60025f8581526020019081526020015f205f8473ffffffffffffffffffffffffffffffffffffffff1673ffffffffffffffffffffffffffffffffffffffff1681526020019081526020015f206040518060600160405290815f82015f9054906101000a900473ffffffffffffffffffffffffffffffffffffffff1673ffffffffffffffffffffffffffffffffffffffff1673ffffffffffffffffffffffffffffffffffffffff1681526020015f820160149054906101000a900460ff1615151515815260200160018201548152505090508060200151156102ee576040517f08c379a00000000000000000000000000000000000000000000000000000000081526004016102e590610efe565b60405180910390fd5b5f8484604051602001610302929190610f81565b6040516020818303038152906040528051906020012090505f7f000000000000000000000000000000000000000000000000000000000000000073ffffffffffffffffffffffffffffffffffffffff16631d647605836040518263ffffffff1660e01b81526004016103749190610fbb565b6020604051808303815f875af1158015610390573d5f5f3e3d5ffd5b505050506040513d601f19601f820116820180604052508101906103b49190610fe8565b905060405180606001604052808273ffffffffffffffffffffffffffffffffffffffff1681526020016001151581526020014281525060025f8881526020019081526020015f205f8773ffffffffffffffffffffffffffffffffffffffff1673ffffffffffffffffffffffffffffffffffffffff1681526020019081526020015f205f820151815f015f6101000a81548173ffffffffffffffffffffffffffffffffffffffff021916908373ffffffffffffffffffffffffffffffffffffffff1602179055506020820151815f0160146101000a81548160ff021916908315150217905550604082015181600101559050508560035f8373ffffffffffffffffffffffffffffffffffffffff1673ffffffffffffffffffffffffffffffffffffffff1681526020019081526020015f2081905550857fed1537f9f0a0a4aec3df7dd6e9f8b39f0fbea8a7026cd22fdcf30fdf145cb0b560405160405180910390a280935050505092915050565b3373ffffffffffffffffffffffffffffffffffffffff168173ffffffffffffffffffffffffffffffffffffffff16837f2a6123026a989d769f8897c82e4b5bc92f63f3f5485c6385e171bc2c950fb5e860405160405180910390a45050565b610588610a4a565b6105928282610a97565b6105d1576040517f08c379a00000000000000000000000000000000000000000000000000000000081526004016105c89061105d565b60405180910390fd5b60405180606001604052808381526020013373ffffffffffffffffffffffffffffffffffffffff1681526020015f81525060015f8481526020019081526020015f205f820151815f01556020820151816001015f6101000a81548173ffffffffffffffffffffffffffffffffffffffff021916908373ffffffffffffffffffffffffffffffffffffffff16021790555060408201518160020155905050817f7bf95da36840603712d6151474aa9f731278e8826c58370507357f03259e2d3760405160405180910390a26106a3610aa2565b5050565b7f000000000000000000000000000000000000000000000000000000000000000081565b5f60035f8573ffffffffffffffffffffffffffffffffffffffff1673ffffffffffffffffffffffffffffffffffffffff1681526020019081526020015f205490505f5f1b8103610750576040517f08c379a0000000000000000000000000000000000000000000000000000000008152600401610747906110c5565b60405180910390fd5b3373ffffffffffffffffffffffffffffffffffffffff1660015f8381526020019081526020015f206001015f9054906101000a900473ffffffffffffffffffffffffffffffffffffffff1673ffffffffffffffffffffffffffffffffffffffff16146107f1576040517f08c379a00000000000000000000000000000000000000000000000000000000081526004016107e89061112d565b60405180910390fd5b5f73ffffffffffffffffffffffffffffffffffffffff168373ffffffffffffffffffffffffffffffffffffffff1603610891578373ffffffffffffffffffffffffffffffffffffffff16634782f77933846040518363ffffffff1660e01b815260040161085f92919061115a565b5f604051808303815f87803b158015610876575f5ffd5b505af1158015610888573d5f5f3e3d5ffd5b505050506108fc565b8373ffffffffffffffffffffffffffffffffffffffff166344004cc18433856040518463ffffffff1660e01b81526004016108ce93929190611181565b5f604051808303815f87803b1580156108e5575f5ffd5b505af11580156108f7573d5f5f3e3d5ffd5b505050505b50505050565b5f5f60025f8581526020019081526020015f205f8473ffffffffffffffffffffffffffffffffffffffff1673ffffffffffffffffffffffffffffffffffffffff1681526020019081526020015f206040518060600160405290815f82015f9054906101000a900473ffffffffffffffffffffffffffffffffffffffff1673ffffffffffffffffffffffffffffffffffffffff1673ffffffffffffffffffffffffffffffffffffffff1681526020015f820160149054906101000a900460ff16151515158152602001600182015481525050905080602001516109e4575f6109e9565b805f01515b91505092915050565b5f5f6109fe8484610902565b90505f73ffffffffffffffffffffffffffffffffffffffff168173ffffffffffffffffffffffffffffffffffffffff1603610a4057610a3d8484610181565b90505b8091505092915050565b60025f5403610a8e576040517f08c379a0000000000000000000000000000000000000000000000000000000008152600401610a8590611200565b60405180910390fd5b60025f81905550565b5f6001905092915050565b60015f81905550565b5f604051905090565b5f5ffd5b5f5ffd5b5f819050919050565b610ace81610abc565b8114610ad8575f5ffd5b50565b5f81359050610ae981610ac5565b92915050565b5f73ffffffffffffffffffffffffffffffffffffffff82169050919050565b5f610b1882610aef565b9050919050565b610b2881610b0e565b8114610b32575f5ffd5b50565b5f81359050610b4381610b1f565b92915050565b5f5f60408385031215610b5f57610b5e610ab4565b5b5f610b6c85828601610adb565b9250506020610b7d85828601610b35565b9150509250929050565b610b9081610b0e565b82525050565b5f602082019050610ba95f830184610b87565b92915050565b5f5ffd5b5f5ffd5b5f601f19601f8301169050919050565b7f4e487b71000000000000000000000000000000000000000000000000000000005f52604160045260245ffd5b610bfd82610bb7565b810181811067ffffffffffffffff82111715610c1c57610c1b610bc7565b5b80604052505050565b5f610c2e610aab565b9050610c3a8282610bf4565b919050565b5f67ffffffffffffffff821115610c5957610c58610bc7565b5b610c6282610bb7565b9050602081019050919050565b828183375f83830152505050565b5f610c8f610c8a84610c3f565b610c25565b905082815260208101848484011115610cab57610caa610bb3565b5b610cb6848285610c6f565b509392505050565b5f82601f830112610cd257610cd1610baf565b5b8135610ce2848260208601610c7d565b91505092915050565b5f5f60408385031215610d0157610d00610ab4565b5b5f610d0e85828601610adb565b925050602083013567ffffffffffffffff811115610d2f57610d2e610ab8565b5b610d3b85828601610cbe565b9150509250929050565b5f819050919050565b5f610d68610d63610d5e84610aef565b610d45565b610aef565b9050919050565b5f610d7982610d4e565b9050919050565b5f610d8a82610d6f565b9050919050565b610d9a81610d80565b82525050565b5f602082019050610db35f830184610d91565b92915050565b5f819050919050565b610dcb81610db9565b8114610dd5575f5ffd5b50565b5f81359050610de681610dc2565b92915050565b5f5f5f60608486031215610e0357610e02610ab4565b5b5f610e1086828701610b35565b9350506020610e2186828701610b35565b9250506040610e3286828701610dd8565b9150509250925092565b5f82825260208201905092915050565b7f427573696e657373206e6f7420726567697374657265640000000000000000005f82015250565b5f610e80601783610e3c565b9150610e8b82610e4c565b602082019050919050565b5f6020820190508181035f830152610ead81610e74565b9050919050565b7f57616c6c657420616c72656164792065786973747300000000000000000000005f82015250565b5f610ee8601583610e3c565b9150610ef382610eb4565b602082019050919050565b5f6020820190508181035f830152610f1581610edc565b9050919050565b5f819050919050565b610f36610f3182610abc565b610f1c565b82525050565b5f8160601b9050919050565b5f610f5282610f3c565b9050919050565b5f610f6382610f48565b9050919050565b610f7b610f7682610b0e565b610f59565b82525050565b5f610f8c8285610f25565b602082019150610f9c8284610f6a565b6014820191508190509392505050565b610fb581610abc565b82525050565b5f602082019050610fce5f830184610fac565b92915050565b5f81519050610fe281610b1f565b92915050565b5f60208284031215610ffd57610ffc610ab4565b5b5f61100a84828501610fd4565b91505092915050565b7f496e76616c696420646f6d61696e206f776e65727368697000000000000000005f82015250565b5f611047601883610e3c565b915061105282611013565b602082019050919050565b5f6020820190508181035f8301526110748161103b565b9050919050565b7f57616c6c6574206e6f7420666f756e64000000000000000000000000000000005f82015250565b5f6110af601083610e3c565b91506110ba8261107b565b602082019050919050565b5f6020820190508181035f8301526110dc816110a3565b9050919050565b7f4e6f74206f776e657200000000000000000000000000000000000000000000005f82015250565b5f611117600983610e3c565b9150611122826110e3565b602082019050919050565b5f6020820190508181035f8301526111448161110b565b9050919050565b61115481610db9565b82525050565b5f60408201905061116d5f830185610b87565b61117a602083018461114b565b9392505050565b5f6060820190506111945f830186610b87565b6111a16020830185610b87565b6111ae604083018461114b565b949350505050565b7f5265656e7472616e637947756172643a207265656e7472616e742063616c6c005f82015250565b5f6111ea601f83610e3c565b91506111f5826111b6565b602082019050919050565b5f6020820190508181035f830152611217816111de565b905091905056fea2646970667358221220e855d49c74a9841e155606be2a5e2fb7e8bb4371c3851bee86775ce8346a74e364736f6c634300081c0033",
    "linkReferences": {}
  },
  "methodIdentifiers": {
    "createWallet(bytes32,address)": "0f630418",
    "factory()": "c45a0155",
    "getOrCreateWallet(bytes32,address)": "fbc799db",
    "getWallet(bytes32,address)": "eb9aaeb6",
    "logWalletRequest(bytes32,address)": "30620d64",
    "registerBusiness(bytes32,bytes)": "85ef4e74",
    "withdrawFromWallet(address,address,uint256)": "d63d57f7"
  },
  "id": 23
}