{
    "abi": [
        {
            "type": "constructor",
            "inputs": [
                {
                    "name": "_factory",
                    "type": "address",
                    "internalType": "address"
                }
            ],
            "stateMutability": "nonpayable"
        },
        {
            "type": "function",
            "name": "factory",
            "inputs": [],
            "outputs": [
                {
                    "name": "",
                    "type": "address",
                    "internalType": "contract BusinessWalletFactory"
                }
            ],
            "stateMutability": "view"
        },
        {
            "type": "function",
            "name": "getWallet",
            "inputs": [
                {
                    "name": "domainHash",
                    "type": "bytes32",
                    "internalType": "bytes32"
                },
                {
                    "name": "sender",
                    "type": "address",
                    "internalType": "address"
                }
            ],
            "outputs": [
                {
                    "name": "",
                    "type": "address",
                    "internalType": "address"
                }
            ],
            "stateMutability": "nonpayable"
        },
        {
            "type": "function",
            "name": "registerBusiness",
            "inputs": [
                {
                    "name": "domainHash",
                    "type": "bytes32",
                    "internalType": "bytes32"
                },
                {
                    "name": "signature",
                    "type": "bytes",
                    "internalType": "bytes"
                }
            ],
            "outputs": [],
            "stateMutability": "nonpayable"
        },
        {
            "type": "function",
            "name": "withdrawFromWallet",
            "inputs": [
                {
                    "name": "wallet",
                    "type": "address",
                    "internalType": "address"
                },
                {
                    "name": "token",
                    "type": "address",
                    "internalType": "address"
                },
                {
                    "name": "amount",
                    "type": "uint256",
                    "internalType": "uint256"
                }
            ],
            "outputs": [],
            "stateMutability": "nonpayable"
        },
        {
            "type": "event",
            "name": "BusinessRegistered",
            "inputs": [
                {
                    "name": "domainHash",
                    "type": "bytes32",
                    "indexed": true,
                    "internalType": "bytes32"
                }
            ],
            "anonymous": false
        },
        {
            "type": "event",
            "name": "WalletAssigned",
            "inputs": [
                {
                    "name": "domainHash",
                    "type": "bytes32",
                    "indexed": true,
                    "internalType": "bytes32"
                }
            ],
            "anonymous": false
        }
    ],
    "bytecode": {
        "object": "0x60c060405234801561000f575f5ffd5b5060405161125138038061125183398181016040528101906100319190610100565b60015f819055508073ffffffffffffffffffffffffffffffffffffffff1660808173ffffffffffffffffffffffffffffffffffffffff1681525050423360405160200161007f929190610199565b6040516020818303038152906040528051906020012060a08181525050506101c4565b5f5ffd5b5f73ffffffffffffffffffffffffffffffffffffffff82169050919050565b5f6100cf826100a6565b9050919050565b6100df816100c5565b81146100e9575f5ffd5b50565b5f815190506100fa816100d6565b92915050565b5f60208284031215610115576101146100a2565b5b5f610122848285016100ec565b91505092915050565b5f819050919050565b5f819050919050565b61014e6101498261012b565b610134565b82525050565b5f8160601b9050919050565b5f61016a82610154565b9050919050565b5f61017b82610160565b9050919050565b61019361018e826100c5565b610171565b82525050565b5f6101a4828561013d565b6020820191506101b48284610182565b6014820191508190509392505050565b60805160a0516110656101ec5f395f6105ba01525f81816101fd015261060701526110655ff3fe608060405234801561000f575f5ffd5b506004361061004a575f3560e01c806385ef4e741461004e578063c45a01551461006a578063d63d57f714610088578063eb9aaeb6146100a4575b5f5ffd5b610068600480360381019061006391906109ee565b6100d4565b005b6100726101fb565b60405161007f9190610ac2565b60405180910390f35b6100a2600480360381019061009d9190610b49565b61021f565b005b6100be60048036038101906100b99190610b99565b610456565b6040516100cb9190610be6565b60405180910390f35b6100dc61080d565b6100e6828261085a565b610125576040517f08c379a000000000000000000000000000000000000000000000000000000000815260040161011c90610c59565b60405180910390fd5b60405180606001604052808381526020013373ffffffffffffffffffffffffffffffffffffffff1681526020015f81525060015f8481526020019081526020015f205f820151815f01556020820151816001015f6101000a81548173ffffffffffffffffffffffffffffffffffffffff021916908373ffffffffffffffffffffffffffffffffffffffff16021790555060408201518160020155905050817f7bf95da36840603712d6151474aa9f731278e8826c58370507357f03259e2d3760405160405180910390a26101f7610865565b5050565b7f000000000000000000000000000000000000000000000000000000000000000081565b5f60035f8573ffffffffffffffffffffffffffffffffffffffff1673ffffffffffffffffffffffffffffffffffffffff1681526020019081526020015f205490505f5f1b81036102a4576040517f08c379a000000000000000000000000000000000000000000000000000000000815260040161029b90610cc1565b60405180910390fd5b3373ffffffffffffffffffffffffffffffffffffffff1660015f8381526020019081526020015f206001015f9054906101000a900473ffffffffffffffffffffffffffffffffffffffff1673ffffffffffffffffffffffffffffffffffffffff1614610345576040517f08c379a000000000000000000000000000000000000000000000000000000000815260040161033c90610d29565b60405180910390fd5b5f73ffffffffffffffffffffffffffffffffffffffff168373ffffffffffffffffffffffffffffffffffffffff16036103e5578373ffffffffffffffffffffffffffffffffffffffff16634782f77933846040518363ffffffff1660e01b81526004016103b3929190610d56565b5f604051808303815f87803b1580156103ca575f5ffd5b505af11580156103dc573d5f5f3e3d5ffd5b50505050610450565b8373ffffffffffffffffffffffffffffffffffffffff166344004cc18433856040518463ffffffff1660e01b815260040161042293929190610d7d565b5f604051808303815f87803b158015610439575f5ffd5b505af115801561044b573d5f5f3e3d5ffd5b505050505b50505050565b5f5f60015f8581526020019081526020015f2090505f5f1b815f0154036104b2576040517f08c379a00000000000000000000000000000000000000000000000000000000081526004016104a990610dfc565b60405180910390fd5b5f60025f8681526020019081526020015f205f8573ffffffffffffffffffffffffffffffffffffffff1673ffffffffffffffffffffffffffffffffffffffff1681526020019081526020015f2090505f73ffffffffffffffffffffffffffffffffffffffff16815f015f9054906101000a900473ffffffffffffffffffffffffffffffffffffffff1673ffffffffffffffffffffffffffffffffffffffff161415801561056c5750805f0160149054906101000a900460ff165b1561059d57805f015f9054906101000a900473ffffffffffffffffffffffffffffffffffffffff1692505050610807565b5f8585846002015f8154809291906105b490610e47565b919050557f00000000000000000000000000000000000000000000000000000000000000006040516020016105ec9493929190610f13565b6040516020818303038152906040528051906020012090505f7f000000000000000000000000000000000000000000000000000000000000000073ffffffffffffffffffffffffffffffffffffffff16631d647605836040518263ffffffff1660e01b815260040161065e9190610f6f565b6020604051808303815f875af115801561067a573d5f5f3e3d5ffd5b505050506040513d601f19601f8201168201806040525081019061069e9190610f9c565b905060405180606001604052808273ffffffffffffffffffffffffffffffffffffffff1681526020016001151581526020014281525060025f8981526020019081526020015f205f8873ffffffffffffffffffffffffffffffffffffffff1673ffffffffffffffffffffffffffffffffffffffff1681526020019081526020015f205f820151815f015f6101000a81548173ffffffffffffffffffffffffffffffffffffffff021916908373ffffffffffffffffffffffffffffffffffffffff1602179055506020820151815f0160146101000a81548160ff021916908315150217905550604082015181600101559050508660035f8373ffffffffffffffffffffffffffffffffffffffff1673ffffffffffffffffffffffffffffffffffffffff1681526020019081526020015f2081905550867fed1537f9f0a0a4aec3df7dd6e9f8b39f0fbea8a7026cd22fdcf30fdf145cb0b560405160405180910390a2809450505050505b92915050565b60025f5403610851576040517f08c379a000000000000000000000000000000000000000000000000000000000815260040161084890611011565b60405180910390fd5b60025f81905550565b5f6001905092915050565b60015f81905550565b5f604051905090565b5f5ffd5b5f5ffd5b5f819050919050565b6108918161087f565b811461089b575f5ffd5b50565b5f813590506108ac81610888565b92915050565b5f5ffd5b5f5ffd5b5f601f19601f8301169050919050565b7f4e487b71000000000000000000000000000000000000000000000000000000005f52604160045260245ffd5b610900826108ba565b810181811067ffffffffffffffff8211171561091f5761091e6108ca565b5b80604052505050565b5f61093161086e565b905061093d82826108f7565b919050565b5f67ffffffffffffffff82111561095c5761095b6108ca565b5b610965826108ba565b9050602081019050919050565b828183375f83830152505050565b5f61099261098d84610942565b610928565b9050828152602081018484840111156109ae576109ad6108b6565b5b6109b9848285610972565b509392505050565b5f82601f8301126109d5576109d46108b2565b5b81356109e5848260208601610980565b91505092915050565b5f5f60408385031215610a0457610a03610877565b5b5f610a118582860161089e565b925050602083013567ffffffffffffffff811115610a3257610a3161087b565b5b610a3e858286016109c1565b9150509250929050565b5f73ffffffffffffffffffffffffffffffffffffffff82169050919050565b5f819050919050565b5f610a8a610a85610a8084610a48565b610a67565b610a48565b9050919050565b5f610a9b82610a70565b9050919050565b5f610aac82610a91565b9050919050565b610abc81610aa2565b82525050565b5f602082019050610ad55f830184610ab3565b92915050565b5f610ae582610a48565b9050919050565b610af581610adb565b8114610aff575f5ffd5b50565b5f81359050610b1081610aec565b92915050565b5f819050919050565b610b2881610b16565b8114610b32575f5ffd5b50565b5f81359050610b4381610b1f565b92915050565b5f5f5f60608486031215610b6057610b5f610877565b5b5f610b6d86828701610b02565b9350506020610b7e86828701610b02565b9250506040610b8f86828701610b35565b9150509250925092565b5f5f60408385031215610baf57610bae610877565b5b5f610bbc8582860161089e565b9250506020610bcd85828601610b02565b9150509250929050565b610be081610adb565b82525050565b5f602082019050610bf95f830184610bd7565b92915050565b5f82825260208201905092915050565b7f496e76616c696420646f6d61696e206f776e65727368697000000000000000005f82015250565b5f610c43601883610bff565b9150610c4e82610c0f565b602082019050919050565b5f6020820190508181035f830152610c7081610c37565b9050919050565b7f57616c6c6574206e6f7420666f756e64000000000000000000000000000000005f82015250565b5f610cab601083610bff565b9150610cb682610c77565b602082019050919050565b5f6020820190508181035f830152610cd881610c9f565b9050919050565b7f4e6f74206f776e657200000000000000000000000000000000000000000000005f82015250565b5f610d13600983610bff565b9150610d1e82610cdf565b602082019050919050565b5f6020820190508181035f830152610d4081610d07565b9050919050565b610d5081610b16565b82525050565b5f604082019050610d695f830185610bd7565b610d766020830184610d47565b9392505050565b5f606082019050610d905f830186610bd7565b610d9d6020830185610bd7565b610daa6040830184610d47565b949350505050565b7f427573696e657373206e6f7420666f756e6400000000000000000000000000005f82015250565b5f610de6601283610bff565b9150610df182610db2565b602082019050919050565b5f6020820190508181035f830152610e1381610dda565b9050919050565b7f4e487b71000000000000000000000000000000000000000000000000000000005f52601160045260245ffd5b5f610e5182610b16565b91507fffffffffffffffffffffffffffffffffffffffffffffffffffffffffffffffff8203610e8357610e82610e1a565b5b600182019050919050565b5f819050919050565b610ea8610ea38261087f565b610e8e565b82525050565b5f8160601b9050919050565b5f610ec482610eae565b9050919050565b5f610ed582610eba565b9050919050565b610eed610ee882610adb565b610ecb565b82525050565b5f819050919050565b610f0d610f0882610b16565b610ef3565b82525050565b5f610f1e8287610e97565b602082019150610f2e8286610edc565b601482019150610f3e8285610efc565b602082019150610f4e8284610e97565b60208201915081905095945050505050565b610f698161087f565b82525050565b5f602082019050610f825f830184610f60565b92915050565b5f81519050610f9681610aec565b92915050565b5f60208284031215610fb157610fb0610877565b5b5f610fbe84828501610f88565b91505092915050565b7f5265656e7472616e637947756172643a207265656e7472616e742063616c6c005f82015250565b5f610ffb601f83610bff565b915061100682610fc7565b602082019050919050565b5f6020820190508181035f83015261102881610fef565b905091905056fea26469706673582212201d6a7b855add1d308a1e18b283f26b59c1efda6e63518649da4ab6bc39fef77c64736f6c634300081c0033",
        "linkReferences": {}
    },
    "methodIdentifiers": {
        "factory()": "c45a0155",
        "getWallet(bytes32,address)": "eb9aaeb6",
        "registerBusiness(bytes32,bytes)": "85ef4e74",
        "withdrawFromWallet(address,address,uint256)": "d63d57f7"
    },
    "id": 23
}